:100000000C942A000C943F000C943F000C943F0089
:100010000C943F000C943F000C943F000C943F0064
:100020000C943F000C943F000C943F000C943F0054
:100030000C943F000C943F000C943F000C943F0044
:100040000C943F000C943F000C943F000C943F0034
:100050000C943F0011241FBECFE5D8E0DEBFCDBF1A
:1000600010E0A0E6B0E0E8E6F6E002C005900D92F0
:10007000A236B107D9F70E9441000C9432030C94C8
:100080000000CF93DF938FEF84BBC0E0D0E085E327
:1000900090E0BE010E9465002196C536D105ACF7FF
:1000A000F6CFDC01FA01208370E06150704081E0FE
:1000B00090E002C0880F991F6A95E2F780958C93B3
:1000C00080E197E20197F1F708958F929F92AF92A6
:1000D000BF92CF92DF92EF92FF920F931F93DF9325
:1000E000CF93CDB7DEB728970FB6F894DEBF0FBE1B
:1000F000CDBF4C019B01FE01319688E0DF011D92CE
:100100008A95E9F7FE0137960EC0C9016AE070E0F2
:100110000E941E0391838083C9016AE070E00E94FF
:100120001E039B0132972115310579F78F81806F6E
:100130008F7EF40180836091600070916100882758
:1001400077FD8095982F0E9407025B016C0120E0EB
:1001500030E04AEF54E40E9493027B018C0120E0DE
:1001600030E040E85FE30E94D50188231CF461E0A1
:1001700070E024C0C801B70120E03FEF4FE757E42B
:100180000E948F021816B4F4C601B50120E030E0D9
:1001900040E251E40E9493020E94D90188EC90E071
:1001A00005C0FC013197F1F7615070406115710590
:1001B000C1F707C0C801B7010E94D901CB0101975F
:1001C000F1F78D81806F8F7DD4018C9360916000F9
:1001D00070916100882777FD8095982F0E94070213
:1001E0005B016C0120E030E04AEF54E40E9493028E
:1001F0007B018C0120E030E040E85FE30E94D50104
:1002000088231CF461E070E024C0C801B70120E03D
:100210003FEF4FE757E40E948F021816B4F4C6016F
:10022000B50120E030E040E251E40E9493020E94D8
:10023000D90188EC90E005C0FC013197F1F76150DD
:10024000704061157105C1F707C0C801B7010E9470
:10025000D901CB010197F1F78B81806F8F7BF4017E
:1002600080836091600070916100882777FD8095A0
:10027000982F0E9407025B016C0120E030E04AEFFA
:1002800054E40E9493027B018C0120E030E040E8BE
:100290005FE30E94D50188231CF461E070E024C074
:1002A000C801B70120E03FEF4FE757E40E948F02FB
:1002B0001816B4F4C601B50120E030E040E251E484
:1002C0000E9493020E94D90188EC90E005C0FC01D5
:1002D0003197F1F76150704061157105C1F707C0A2
:1002E000C801B7010E94D901CB010197F1F78981BB
:1002F000806F8F77D4018C93609160007091610062
:10030000882777FD8095982F0E9407025B016C017A
:1003100020E030E04AEF54E40E9493027B018C011C
:1003200020E030E040E85FE30E94D50188231CF420
:1003300061E070E024C0C801B70120E03FEF4FE763
:1003400057E40E948F021816B4F4C601B50120E0EC
:1003500030E040E251E40E9493020E94D90188EC0F
:1003600090E005C0FC013197F1F7615070406115D4
:100370007105C1F707C0C801B7010E94D901CB01BF
:100380000197F1F728960FB6F894DEBF0FBECDBFE8
:10039000CF91DF911F910F91FF90EF90DF90CF9061
:1003A000BF90AF909F908F9008956CD008F481E03B
:1003B000089594D088F09F5790F0B92F9927B7519E
:1003C000A0F0D1F0660F771F881F991F1AF0BA9519
:1003D000C9F712C0B13081F09BD0B1E0089598C048
:1003E000672F782F8827B85F39F0B93FCCF386950F
:1003F00077956795B395D9F73EF49095809570956C
:1004000061957F4F8F4F9F4F0895E89409C097FBE8
:100410003EF490958095709561957F4F8F4F9F4FDB
:100420009923A9F0F92F96E9BB279395F69587951F
:1004300077956795B795F111F8CFFAF4BB0F11F4E2
:1004400060FF1BC06F5F7F4F8F4F9F4F16C0882389
:1004500011F096E911C0772321F09EE8872F762FBF
:1004600005C0662371F096E8862F70E060E02AF000
:100470009A95660F771F881FDAF7880F96958795EC
:1004800097F90895990F0008550FAA0BE0E8FEEFC1
:1004900016161706E807F907C0F012161306E40748
:1004A000F50798F0621B730B840B950B39F40A2641
:1004B00061F0232B242B252B21F408950A2609F41F
:1004C000A140A6958FEF811D811D089557FD90587D
:1004D000440F551F59F05F3F71F04795880F97FB08
:1004E000991F61F09F3F79F08795089512161306C2
:1004F0001406551FF2CF4695F1DF08C016161706F1
:100500001806991FF1CF8695710561050894089525
:10051000E894BB2766277727CB0197F90895B2DFC8
:1005200008F48FEF08950BD078C069D028F06ED012
:1005300018F0952309F05AC05FC01124EACFC6DF36
:10054000A0F3959FD1F3950F50E0551F629FF001E6
:10055000729FBB27F00DB11D639FAA27F00DB11D3F
:10056000AA1F649F6627B00DA11D661F829F2227C8
:10057000B00DA11D621F739FB00DA11D621F839F4F
:10058000A00D611D221F749F3327A00D611D231F25
:10059000849F600D211D822F762F6A2F11249F5773
:1005A00050408AF0E1F088234AF0EE0FFF1FBB1F96
:1005B000661F771F881F91505040A9F79E3F510535
:1005C00070F014C0A6CF5F3FECF3983EDCF3869545
:1005D00077956795B795F795E7959F5FC1F7FE2BE0
:1005E000880F911D9695879597F9089597F99F67BC
:1005F00080E870E060E008959FEF80EC08950024AB
:100600000A941616170618060906089500240A9477
:1006100012161306140605060895092E0394000CFD
:1006200011F4882352F0BB0F40F4BF2B11F460FF8C
:1006300004C06F5F7F4F8F4F9F4F0895AA1BBB1B56
:1006400051E107C0AA1FBB1FA617B70710F0A61BD2
:10065000B70B881F991F5A95A9F780959095BC01F3
:08066000CD010895F894FFCFCD
:0206680005008B
:00000001FF
