:100000000C942A000C9434000C9434000C943400AA
:100010000C9434000C9434000C9434000C94340090
:100020000C9434000C9434000C9434000C94340080
:100030000C9434000C9434000C9434000C94340070
:100040000C9434000C9434000C9434000C94340060
:100050000C94340011241FBECFE5D8E0DEBFCDBF25
:100060000E9436000C9489000C9400001F938AB300
:100070008FEF8ABB1FEF48EC50E0A1E0B0E060E8F2
:1000800070E08BB31BBB88E893E1FA013197F1F77D
:100090000197D9F78BB31BBA88E893E1FA0131973E
:1000A000F1F70197D9F720E030E0CD01022E02C030
:1000B000880F991F0A94E2F78BBB88E893E1FA0155
:1000C0003197F1F70197D9F72F5F3F4F283031056E
:1000D00061F78BB31BBA88E893E1FA013197F1F726
:1000E0000197D9F720E030E0CB01022E02C09595B0
:1000F00087950A94E2F78BBB88E893E1FA01319780
:10010000F1F70197D9F72F5F3F4F2830310561F79D
:06011000B8CFF894FFCF08
:00000001FF
