:100000000C942A000C9434000C9434000C943400AA
:100010000C9434000C9434000C9434000C94340090
:100020000C9434000C9434000C9434000C94340080
:100030000C9434000C9434000C9434000C94340070
:100040000C9434000C9434000C9434000C94340060
:100050000C94340011241FBECFE5D8E0DEBFCDBF25
:100060000E9436000C945C000C94000087B38FEF64
:1000700087BBD09848EC50E029B3C79A88EE93E04C
:10008000FA013197F1F70197D9F7C79888EE93E015
:10009000FA013197F1F70197D9F720FF06C088B32D
:1000A000856588BB88B3857505C088B38B6288BBBE
:0C00B00088B38B7288BBE0CFF894FFCFC0
:00000001FF
