:100000000C942A000C943C000C943C000C943C0092
:100010000C943C000C943C000C943C000C943C0070
:100020000C943C000C943C000C943C000C943C0060
:100030000C943C000C943C000C943C000C943C0050
:100040000C943C000C943C000C943C000C943C0040
:100050000C943C0011241FBECFE5D8E0DEBFCDBF1D
:1000600010E0A0E6B0E001C01D92A136B107E1F7B3
:100070000E943E000C9466000C94000087B38FEF42
:1000800087BBD09848EC50E029B388B3816888BB1F
:1000900088EE93E0FA013197F1F70197D9F7C79805
:1000A00088EE93E0FA013197F1F70197D9F720FF35
:1000B00006C088B3856588BB88B3857505C088B3DD
:1000C0008B6288BB88B38B7288BBDECFF894FFCF7E
:00000001FF
