:100000000C942A000C9434000C9434000C943400AA
:100010000C9434000C9434000C9434000C94340090
:100020000C9434000C9434000C9434000C94340080
:100030000C9434000C9434000C9434000C94340070
:100040000C9434000C9434000C9434000C94340060
:100050000C94340011241FBECFE5D8E0DEBFCDBF25
:100060000E9436000C9480000C9400008FEF87BB38
:10007000A1E048EC50E06FEF70E8A8BB88EE93E099
:10008000FA013197F1F70197D9F721E030E088B311
:10009000880F88BB88EE93E0FA013197F1F701975A
:1000A000D9F72F5F3F4F2930310589F768BB88EEBC
:1000B00093E0FA013197F1F70197D9F778BB88EE11
:1000C00093E0FA013197F1F70197D9F721E030E099
:1000D00088B3869588BB88EE93E0FA013197F1F7F3
:1000E0000197D9F72F5F3F4F2930310589F768BB5A
:1000F00088EE93E0FA013197F1F70197D9F7BDCF78
:04010000F894FFCFA1
:00000001FF
