:100000000C942A000C9434000C9434000C943400AA
:100010000C9434000C9434000C9434000C94340090
:100020000C9434000C9434000C9434000C94340080
:100030000C9434000C9434000C9434000C94340070
:100040000C9434000C9434000C9434000C94340060
:100050000C94340011241FBECFE5D8E0DEBFCDBF25
:100060000E9453000C9477000C94000081E08BBB3D
:1000700020E030E061E070E048EC50E0CB01022E7F
:1000800002C0880F991F0A94E2F78BBB88E893E1BE
:10009000FA013197F1F70197D9F72F5F3F4F2830D9
:1000A000310561F708958FEF8ABB0E9436000E94E8
:1000B0005A00FBCF80E88BBB20E030E060E870E0C6
:1000C00048EC50E0CB01022E02C0959587950A942A
:1000D000E2F78BBB88E893E1FA013197F1F70197DA
:1000E000D9F72F5F3F4F2830310561F70895F89415
:0200F000FFCF40
:00000001FF
