:100000000C942A000C943C000C943C000C943C0092
:100010000C943C000C943C000C943C000C943C0070
:100020000C943C000C943C000C943C000C943C0060
:100030000C943C000C943C000C943C000C943C0050
:100040000C943C000C943C000C943C000C943C0040
:100050000C943C0011241FBECFE5D8E0DEBFCDBF1D
:1000600010E0A0E6B0E001C01D92A236B107E1F7B2
:100070000E943E000C9461000C9400008AB38360DF
:100080008ABB8AB3837F8ABB409161002091600064
:1000900061E052E002C0492F232F89B399B39870D1
:1000A000382F347082FF05C0321719F08BB38627C2
:1000B0008BBB992381F3941771F38BB385278BBB8B
:0600C000EACFF894FFCF27
:00000001FF
