:100000000C9446000C945D000C945D000C945D0013
:100010000C945D000C945D000C945D000C945D00EC
:100020000C945D000C945D000C945D000C945D00DC
:100030000C945D000C945D000C945D000C945D00CC
:100040000C945D000C945D000C945D000C945D00BC
:100050000C945D000C945D000C945D000C945D00AC
:100060000C945D000C945D000C945D000C945D009C
:100070000C945D000C945D000C945D000C945D008C
:100080000C945D000C945D000C945D0011241FBE67
:10009000CFEFD0E1DEBFCDBF11E0A0E0B1E0E2E004
:1000A000F1E000E00BBF02C007900D92A030B10755
:1000B000D9F70E945F000C947F000C9400008AB373
:1000C0008FEF8ABB20E030E061E070E048EC50E068
:1000D000CB01022E02C0880F991F0A94E2F78BBB56
:1000E00088E893E1FA013197F1F70197D9F72F5F8B
:1000F0003F4F2830310564F320E030E0E9CFF89439
:02010000FFCF2F
:00000001FF
