:100000000C942A000C943F000C943F000C943F0089
:100010000C943F000C943F000C943F000C943F0064
:100020000C943F000C943F000C943F000C943F0054
:100030000C943F000C943F000C943F000C943F0044
:100040000C943F000C943F000C943F000C943F0034
:100050000C943F0011241FBECFE5D8E0DEBFCDBF1A
:1000600010E0A0E6B0E0E4EAF1E002C005900D92F5
:10007000A437B107D9F70E9441000C94D0000C942A
:1000800000008F929F92AF92BF92CF92DF92EF9239
:10009000FF920F931F93DF93CF93CDB7DEB7649793
:1000A0000FB6F894DEBF0FBECDBF8FEF8ABB87BB04
:1000B0007E010894E11CF11C00E61AEE4FE0EBE52E
:1000C0008E2E77E0972E6FE3A62E5BE0B52E3DE0F7
:1000D000C32E2EE0D22ED701E0E6F0E084E10190BD
:1000E0000D928150E1F720E030E048BB8BBA98BA1E
:1000F000C8010197F1F748BBABBAB8BAC80101977C
:10010000F1F748BBC9016AE070E00E94A900FB0159
:10011000EE0FFF1FEE0DFF1D80818BBBC8BAC8011B
:100120000197F1F748BBC9016AE070E00E94A9009D
:10013000FC01EE0FFF1FEE0DFF1D80818BBBD8BAB7
:10014000C8010197F1F72F5F3F4F2D32310569F656
:10015000C2CF97FB092E07260AD077FD04D00CD01A
:1001600006D000201AF4709561957F4F0895F6F738
:10017000909581959F4F0895AA1BBB1B51E107C025
:10018000AA1FBB1FA617B70710F0A61BB70B881F27
:10019000991F5A95A9F780959095BC01CD010895B6
:0401A000F894FFCF01
:1001A4003F0006005B004F0066006D007C00070006
:0401B4007F006F0059
:00000001FF
