:100000000C942A000C943F000C943F000C943F0089
:100010000C943F000C943F000C943F000C943F0064
:100020000C943F000C943F000C943F000C943F0054
:100030000C943F000C943F000C943F000C943F0044
:100040000C943F000C943F000C943F000C943F0034
:100050000C943F0011241FBECFE5D8E0DEBFCDBF1A
:1000600010E0A0E6B0E0E4E0F1E002C005900D92FF
:10007000A437B107D9F70E9441000C9480000C947A
:100080000000FF920F931F93DF93CF93CDB7DEB79E
:1000900064970FB6F894DEBF0FBECDBF8AB38FEF63
:1000A0008ABB97B387BB94B384BBAE014F5F5F4FEE
:1000B0008FE3F82E08EC10E0BE016B5E7F4FDA0193
:1000C000E0E6F0E084E101900D928150E1F7F5BAAD
:1000D0009A01F901808188BBDA018C918BBB80ED9C
:1000E00097E0F8013197F1F70197D9F714966A175D
:1000F0007B0799F72E5F3F4F6217730751F7DFCFEA
:04010000F894FFCFA1
:100104003F0006005B004F0066006D007C000700A6
:040114007F006F00F9
:00000001FF
