:100000000C942A000C9434000C9434000C943400AA
:100010000C9434000C9434000C9434000C94340090
:100020000C9434000C9434000C9434000C94340080
:100030000C9434000C9434000C9434000C94340070
:100040000C9434000C9434000C9434000C94340060
:100050000C94340011241FBECFE5D8E0DEBFCDBF25
:100060000E9436000C94DA030C940000CF93DF93C7
:1000700080E00E94BC0081E060E00E949400C8EA39
:10008000D1E680E090E00E94EE019C01220F331F38
:10009000220F331F280F391F442737FD4095542F57
:1000A000CA01B9010E949C0224E13EEA43E251E404
:1000B0000E9401020E946902DC01CB0164E070E051
:1000C0000E946A01CE010197F1F781E060E00E9491
:1000D0009400D7CF81B3807F81BB959A969881E0B9
:1000E0008A95F1F721E0949A822F8A95F1F780B3EF
:1000F0008295807F922F9A95F1F79498922F9A95F6
:10010000F1F7949A922F9A95F1F790B3922F9A95CE
:10011000F1F79498922F9A95F1F787FDE4CF95988F
:1001200081B38F6081BB0895382F662311F49698B0
:1001300001C0969A21E0822F8A95F1F7949A82B3B2
:10014000932F92959F70807F982B92BB822F8A95D8
:10015000F1F79498822F8A95F1F7949A82B33F70C1
:10016000807F832B82BB822F8A95F1F794982A9502
:10017000F1F70E946A0008951F93182F8CE49DE107
:100180000197F1F781B38F6081BB8C9A8E9A8D9A1B
:1001900082B3807F82BB94989598969880E1982F3F
:1001A0009A95F1F7949A919A982F9A95F1F79498D5
:1001B0008A95F1F70E946A00812F8C6060E00E94AE
:1001C000940011E2812F8A95F1F788E260E00E94A5
:1001D00094001A95F1F71F910895CF93DF93EC01E6
:1001E00004C061E00E949400219688818823C9F7A9
:1001F000DF91CF9108954F925F926F927F928F928D
:100200009F92AF92BF92CF92DF92EF92FF920F93A5
:100210001F93CF93DF93EB013C018824992489E15C
:10022000482E512C42C0219661E00E949400C401E6
:10023000B3010E949A025B016C0120E030E04AE7C2
:1002400053E40E9450037B018C0120E030E040E841
:100250005FE30E94FD0188231CF461E070E022C08E
:10026000C801B70120E03FEF4FE757E40E944C037D
:100270001816A4F4C601B50120E030E040E251E4D4
:100280000E9450030E946E0205C0C2010197F1F75F
:100290006150704061157105C1F707C0C801B70111
:1002A0000E946E02CB010197F1F78881882309F043
:1002B000BACFDF91CF911F910F91FF90EF90DF9018
:1002C000CF90BF90AF909F908F907F906F905F90F6
:1002D0004F900895EF92FF920F931F93DF93CF9368
:1002E00000D000D00F92CDB7DEB79C018B01FE018C
:1002F000319685E0DF011D928A95E9F7FE0135967A
:100300000DC0C9016AE070E00E94B3038083C90197
:100310006AE070E00E94B3039B013197211531051B
:1003200081F7BFEF0F3F1B0779F420E030E0AE010B
:100330004F5F5F4F02C02F5F3F4FFA01E20FF31F85
:1003400080818823C1F304C025E030E0201B310BFD
:100350007E010894E11CF11CE20EF31E890109C024
:10036000F70181917F01805D61E00E9494000F5F41
:100370001F4F05301105A4F30F900F900F900F90B1
:100380000F90CF91DF911F910F91FF90EF90089503
:10039000DF93CF9300D000D0CDB7DEB7982F843154
:1003A00080F480E8898380EC8A8384E98B8384ED00
:1003B0008C83FE01E60FF11D8181890F60E00E94B0
:1003C00094000F900F900F900F90CF91DF910895B0
:1003D0003E9A86B1876086B9379A08951F93182F81
:1003E0000E94E80187B1812B87B9369A3699FECFF2
:1003F00024B135B1C9011F910895D9D008F481E025
:1004000008950CD00FC107D140F0FED030F021F498
:100410005F3F19F0F0C0511139C1F3C014D198F306
:100420009923C9F35523B1F3951B550BBB27AA2775
:1004300062177307840738F09F5F5F4F220F331FE7
:10044000441FAA1FA9F333D00E2E3AF0E0E830D0B3
:1004500091505040E695001CCAF729D0FE2F27D0B6
:10046000660F771F881FBB1F261737074807AB0784
:10047000B0E809F0BB0B802DBF01FF2793585F4FF9
:100480002AF09E3F510568F0B6C000C15F3FECF313
:10049000983EDCF3869577956795B795F7959F5FBE
:1004A000C9F7880F911D9695879597F90895E1E012
:1004B000660F771F881FBB1F621773078407BA0771
:1004C00020F0621B730B840BBA0BEE1F88F7E095CC
:1004D000089504D06894B111D9C00895BCD088F0B3
:1004E0009F5790F0B92F9927B751A0F0D1F0660F20
:1004F000771F881F991F1AF0BA95C9F712C0B1303B
:1005000081F0C3D0B1E00895C0C0672F782F88274D
:10051000B85F39F0B93FCCF3869577956795B39579
:10052000D9F73EF490958095709561957F4F8F4FE8
:100530009F4F0895E89409C097FB3EF490958095ED
:10054000709561957F4F8F4F9F4F9923A9F0F92F99
:1005500096E9BB279395F695879577956795B79517
:10056000F111F8CFFAF4BB0F11F460FF1BC06F5FFD
:100570007F4F8F4F9F4F16C0882311F096E911C00F
:10058000772321F09EE8872F762F05C0662371F030
:1005900096E8862F70E060E02AF09A95660F771F44
:1005A000881FDAF7880F9695879597F90895990F20
:1005B0000008550FAA0BE0E8FEEF16161706E8072D
:1005C000F907C0F012161306E407F50798F0621B4E
:1005D000730B840B950B39F40A2661F0232B242B23
:1005E000252B21F408950A2609F4A140A6958FEF42
:1005F000811D811D089597F99F6780E870E060E094
:1006000008959FEF80EC089500240A9416161706AB
:1006100018060906089500240A94121613061406F3
:1006200005060895092E0394000C11F4882352F056
:10063000BB0F40F4BF2B11F460FF04C06F5F7F4F0E
:100640008F4F9F4F089557FD9058440F551F59F0F5
:100650005F3F71F04795880F97FB991F61F09F3FAF
:1006600079F087950895121613061406551FF2CFD8
:100670004695F1DF08C0161617061806991FF1CF28
:1006800086957105610508940895E894BB2766274F
:100690007727CB0197F908958ADF08F48FEF089543
:1006A0000BD0C0CFB1DF28F0B6DF18F0952309F0EA
:1006B000A2CFA7CF1124EACFC6DFA0F3959FD1F335
:1006C000950F50E0551F629FF001729FBB27F00D00
:1006D000B11D639FAA27F00DB11DAA1F649F662755
:1006E000B00DA11D661F829F2227B00DA11D621FA4
:1006F000739FB00DA11D621F839FA00D611D221F5E
:10070000749F3327A00D611D231F849F600D211D41
:10071000822F762F6A2F11249F5750408AF0E1F0E4
:1007200088234AF0EE0FFF1FBB1F661F771F881F2D
:1007300091505040A9F79E3F510570F05CCFA6CF75
:100740005F3FECF3983EDCF3869577956795B79518
:10075000F795E7959F5FC1F7FE2B880F911D969542
:10076000879597F9089597FB092E07260AD077FDFC
:1007700004D00CD006D000201AF4709561957F4FFC
:100780000895F6F7909581959F4F0895AA1BBB1B7E
:1007900051E107C0AA1FBB1FA617B70710F0A61B81
:1007A000B70B881F991F5A95A9F780959095BC01A2
:0807B000CD010895F894FFCF7C
:00000001FF
