:100000000C942A000C9436000C9434000C943400A8
:100010000C9434000C9434000C9434000C94340090
:100020000C9434000C9434000C9434000C94340080
:100030000C9434000C9434000C9434000C94340070
:100040000C9434000C9434000C9434000C94340060
:100050000C94340011241FBECFE5D8E0DEBFCDBF25
:100060000E9461000C948C000C9400001F920F926F
:100070000FB60F9211242F933F938F939F93EF937B
:10008000FF9385B391E0892785BB88E893E128EC4D
:1000900030E0F9013197F1F70197D9F7FF91EF912E
:1000A0009F918F913F912F910F900FBE0F901F90B6
:1000B00018958FB780688FBF83E085BF80E48BBFC2
:1000C000089581E084BB8FEF8ABB8BEF81BB82BB3D
:1000D0008FB780688FBF83E085BF80E48BBF20E04F
:1000E00030E061E070E048EC50E0CB01022E02C04D
:1000F000880F991F0A94E2F78BBB88EE93E0FA0110
:100100003197F1F70197D9F72F5F3F4F273031052E
:0C01100064F320E030E0E9CFF894FFCF6A
:00000001FF
