:100000000C942A000C943F000C943F000C943F0089
:100010000C943F000C943F000C943F000C943F0064
:100020000C943F000C943F000C943F000C943F0054
:100030000C943F000C943F000C943F000C943F0044
:100040000C943F000C943F000C943F000C943F0034
:100050000C943F0011241FBECFE5D8E0DEBFCDBF1A
:1000600010E0A0E6B0E0EEEAF1E002C005900D92EB
:10007000A437B107D9F70E9455000C94D5000C9411
:100080000000DC01FA01208370E06150704081E0E3
:1000900090E002C0880F991F6A95E2F780958C93D3
:1000A00080E197E20197F1F70895BF92CF92DF9236
:1000B000EF92FF920F931F93DF93CF93CDB7DEB7ED
:1000C00064970FB6F894DEBF0FBECDBF8FEF8ABB2B
:1000D00087BB7E010894E11CF11C00E117E24FE3AD
:1000E000B42E3BEFC32E2DEFD22E4EEFD701E0E61C
:1000F000F0E084E101900D928150E1F720E030E0E2
:10010000C8010197F1F7BBBAC8BAC8010197F1F766
:10011000C9016AE070E00E94AE00FB01EE0FFF1F14
:10012000EE0DFF1D80818BBBD8BAC8010197F1F796
:10013000C9016AE070E00E94AE00FC01EE0FFF1FF3
:10014000EE0DFF1D80818BBB48BBC8010197F1F705
:100150002F5F3F4F2D32310599F6C8CF97FB092EFF
:1001600007260AD077FD04D00CD006D000201AF460
:10017000709561957F4F0895F6F7909581959F4F03
:100180000895AA1BBB1B51E107C0AA1FBB1FA617DE
:10019000B70710F0A61BB70B881F991F5A95A9F730
:0E01A00080959095BC01CD010895F894FFCF95
:1001AE003F0006005B004F0066006D007C000700FC
:0401BE007F006F004F
:00000001FF
