:100000000C942A000C943F000C943F000C943F0089
:100010000C943F000C943F000C943F000C943F0064
:100020000C943F000C943F000C943F000C943F0054
:100030000C943F000C943F000C943F000C943F0044
:100040000C943F000C943F000C943F000C943F0034
:100050000C943F0011241FBECFE5D8E0DEBFCDBF1A
:1000600010E0A0E6B0E0E8EBF1E002C005900D92F0
:10007000A437B107D9F70E945A000C94DA000C9407
:100080000000DC01FA01208370E06150704081E0E3
:1000900090E002C0880F991F6A95E2F780958C93D3
:1000A00084EF91E028EC30E0F9013197F1F7019706
:1000B000D9F70895EF92FF920F931F93DF93CF9399
:1000C000CDB7DEB764970FB6F894DEBF0FBECDBFD5
:1000D0008FEF8ABB87BB7E010894E11CF11CD7011E
:1000E000E0E6F0E084E101900D928150E1F700E05C
:1000F00010E088E390E064E04BE350E02BE50E94E1
:10010000410088E390E063E04BE350E02FE30E947E
:100110004100C8016AE070E00E94B300FB01EE0FED
:10012000FF1FEE0DFF1D88E390E062E04BE350E01F
:1001300020810E944100C8016AE070E00E94B30083
:10014000FC01EE0FFF1FEE0DFF1D88E390E061E064
:100150004BE350E020810E9441000F5F1F4F0D32A2
:10016000110539F6BCCF97FB092E07260AD077FD7B
:1001700004D00CD006D000201AF4709561957F4F02
:100180000895F6F7909581959F4F0895AA1BBB1B84
:1001900051E107C0AA1FBB1FA617B70710F0A61B87
:1001A000B70B881F991F5A95A9F780959095BC01A8
:0801B000CD010895F894FFCF82
:1001B8003F0006005B004F0066006D007C000700F2
:0401C8007F006F0045
:00000001FF
