:100000000C9446000C945D000C945D000C945D0013
:100010000C945D000C945D000C945D000C945D00EC
:100020000C945D000C945D000C945D000C945D00DC
:100030000C945D000C945D000C945D000C945D00CC
:100040000C945D000C945D000C945D000C945D00BC
:100050000C945D000C945D000C945D000C945D00AC
:100060000C945D000C945D000C945D000C945D009C
:100070000C945D000C945D000C945D000C945D008C
:100080000C945D000C945D000C945D0011241FBE67
:10009000CFEFD0E1DEBFCDBF11E0A0E0B1E0E2E6FE
:1000A000F1E000E00BBF02C007900D92A030B10755
:1000B000D9F70E945F000C94AF000C940000CF931E
:1000C000DF9387B38FEF87BBC8ECD0E00E94790045
:1000D00088E893E1FE013197F1F70197D9F70E9483
:1000E000940088E893E1FE013197F1F70197D9F781
:1000F000EDCF20E030E061E070E048EC50E0CB0173
:10010000022E02C0880F991F0A94E2F788BB88E884
:1001100093E1FA013197F1F70197D9F72F5F3F4F3C
:100120002830310561F7089520E030E060E870E0A4
:1001300048EC50E0CB01022E02C0959587950A94B9
:10014000E2F788BB88E893E1FA013197F1F701976C
:10015000D9F72F5F3F4F2830310561F70895F894A4
:02016000FFCFCF
:00000001FF
