:100000000C942A000C9434000C9434000C943400AA
:100010000C9434000C9434000C9434000C94340090
:100020000C9434000C9434000C9434000C94340080
:100030000C9434000C9434000C9434000C94340070
:100040000C9434000C9434000C9434000C94340060
:100050000C94340011241FBECFE5D8E0DEBFCDBF25
:100060000E947F000C94B5000C94000008951F932B
:100070009C016AE070E00E948E00462FE72F862FD9
:10008000972F6AE070E00E948E00F62F172FC901AB
:100090006AE070E00E948E00806F8BBBDC9820E3EA
:1000A00035E7C9010197F1F7842F9E2F6AE070E0D0
:1000B0000E948E00806F8BBBDD98C9010197F1F71C
:1000C0008F2F912F6AE070E00E948E00806F8BBBB3
:1000D000DE98C9010197F1F78F2F912F6AE070E048
:1000E0000E948E00CB016AE070E00E948E00806F5B
:1000F0008BBBDF98C9010197F1F71F910895CF934A
:10010000DF938FEF8ABB87BBC0E0D0E0CE010E94B7
:1001100037002196C536D105BCF7F8CF97FB092EDD
:1001200007260AD077FD04D00CD006D000201AF4A0
:10013000709561957F4F0895F6F7909581959F4F43
:100140000895AA1BBB1B51E107C0AA1FBB1FA6171E
:10015000B70710F0A61BB70B881F991F5A95A9F770
:0E01600080959095BC01CD010895F894FFCFD5
:00000001FF
